:100000000C945D000C9485000C9485000C94850084
:100010000C9485000C9485000C9485000C9485004C
:100020000C9485000C9485000C9485000C9485003C
:100030000C9485000C9485000C9485000C9485002C
:100040000C94A2050C9485000C9470050C944A0540
:100050000C9485000C9485000C9485000C9485000C
:100060000C94EC050C94850000000000240027008F
:100070002A0000000000250028002B0004040404CE
:100080000404040402020202020203030303030342
:10009000010204081020408001020408102001021F
:1000A00004081020000000080002010000030407FB
:1000B00000000000000000000B0711241FBECFEF5E
:1000C000D8E0DEBFCDBF11E0A0E0B1E0E2E6F8E1AC
:1000D00002C005900D92A636B107D9F722E0A6E638
:1000E000B1E001C01D92A83DB207E1F710E0CDE5F7
:1000F000D0E004C02197FE010E94290CCC35D10725
:10010000C9F70E9453070C942F0C0C94000008951B
:100110000895DC01ED91FC910190F081E02D0994AE
:10012000AF92BF92CF92DF92EF92FF920F931F9305
:10013000CF93DF936C017B018B01040F151FEB0143
:100140005E01AE18BF08C017D10759F06991D601FA
:10015000ED91FC910190F081E02DC6010995892B6C
:1001600079F7C501DF91CF911F910F91FF90EF902B
:10017000DF90CF90BF90AF900895FC01538D448DD8
:10018000252F30E0842F90E0821B930B541710F042
:10019000CF96089501970895FC01918D828D98174F
:1001A00061F0A28DAE0FBF2FB11D5D968C91928D27
:1001B0009F5F9F73928F90E008958FEF9FEF089558
:1001C000FC01918D828D981731F0828DE80FF11D21
:1001D000858D90E008958FEF9FEF0895FC01918D3C
:1001E000228D892F90E0805C9F4F821B91098F7335
:1001F0009927089583E292E00E94EE0021E0892B86
:1002000009F420E0822F089580E090E0892B29F006
:100210000E94FA0081110C9400000895FC01A48D45
:10022000A80FB92FB11DA35ABF4F2C91848D90E018
:1002300001968F739927848FA689B7892C93A089FB
:10024000B1898C91837080648C93938D848D981385
:1002500006C00288F389E02D80818F7D8083089518
:10026000EF92FF920F931F93CF93DF93EC0181E006
:10027000888F9B8D8C8D98131AC0E889F9898081AD
:1002800085FF15C09FB7F894EE89FF896083E889E0
:10029000F98980818370806480839FBF81E090E0D2
:1002A000DF91CF911F910F91FF90EF900895F62E5F
:1002B0000B8D10E00F5F1F4F0F731127E02E8C8DF9
:1002C0008E110CC00FB607FCFACFE889F98980813E
:1002D00085FFF5CFCE010E940E01F1CFEB8DEC0F23
:1002E000FD2FF11DE35AFF4FF0829FB7F8940B8F5B
:1002F000EA89FB8980818062CFCFCF93DF93EC01C5
:10030000888D8823B9F0AA89BB89E889F9898C91FD
:1003100085FD03C0808186FD0DC00FB607FCF7CFB9
:100320008C9185FFF2CF808185FFEDCFCE010E94B9
:100330000E01E9CFDF91CF91089590E0FC01EC55DB
:10034000FF4F2491FC01E057FF4F3491FC01E4582A
:10035000FF4FE491EE23C9F0222339F0233001F15D
:10036000A8F4213019F1223029F1F0E0EE0FFF1F3F
:10037000EE58FF4FA591B4918FB7F894EC916111AD
:1003800026C030953E233C938FBF08952730A9F0B7
:100390002830C9F0243049F7809180008F7D03C058
:1003A000809180008F7780938000DFCF84B58F7736
:1003B00084BDDBCF84B58F7DFBCF8091B0008F777C
:1003C0008093B000D2CF8091B0008F7DF9CF3E2BCB
:1003D000DACFCF93DF9390E0FC01E057FF4F2491F9
:1003E00084589F4FFC0184918823D1F090E0880FBE
:1003F000991FFC01E859FF4FA591B491FC01EE58FB
:10040000FF4FC591D49161110EC09FB7F8948C91A4
:10041000E22FE0958E238C932881E223E8839FBF0F
:10042000DF91CF9108958FB7F894EC91E22BEC9384
:100430008FBFF6CF8E50806480937C0080917A00CD
:10044000806480937A0080917A0086FDFCCF809151
:1004500078009091790008953FB7F8948091140244
:1004600090911502A0911602B091170226B5A89B93
:1004700005C02F3F19F00196A11DB11D3FBFBA2F36
:10048000A92F982F8827BC01CD01620F711D811DF6
:10049000911D42E0660F771F881F991F4A95D1F77B
:1004A00008958F929F92AF92BF92CF92DF92EF9278
:1004B000FF924B015C010E942C026B017C010E94A7
:1004C0002C026C197D098E099F09683E73408105D5
:1004D0009105A8F321E0821A9108A108B10888EEDD
:1004E000C80E83E0D81EE11CF11C81149104A10404
:1004F000B10429F7FF90EF90DF90CF90BF90AF90BD
:100500009F908F900895089585ED8093BC00809111
:10051000BC0084FDFCCF10921E0208952091A6011C
:10052000260F3327331F21323105ECF420911E02B0
:10053000FC0190E080E0243069F082E00895A09111
:10054000A6012191AC014A575E4FA40FB52FB11DF2
:100550002C930196861798F38091A601680F6093FB
:10056000A60180E0089581E008950895E0912202B7
:1005700080912102E81730F4F0E0EA59FE4F8081C3
:1005800090E008958FEF9FEF08959091220280915F
:1005900021022FEF3FEF981748F4E92FF0E0EA59D6
:1005A000FE4F208130E09F5F90932202C9010895A1
:1005B0008091210290912202891B990B0895CF927C
:1005C000DF92EF92FF920F931F93CF93DF937C0103
:1005D000CB018A012091ED01222389F0EB016B010F
:1005E000C40ED51ECC15DD0569F06991D701ED91DA
:1005F000FC910190F081E02DC7010995F3CF642FA4
:100600000E948E02C801DF91CF911F910F91FF9040
:10061000EF90DF90CF900895CF93DF931F92CDB7E7
:10062000DEB769832091ED012223F9F020911F02AA
:10063000203258F021E030E0FC013383228390E047
:1006400080E00F90DF91CF91089580912002E82FF4
:10065000F0E0E251FE4F998190838F5F80932002FA
:1006600080931F0281E090E0ECCF61E0CE01019623
:100670000E948E02F7CFCF93FC01C48121E020932A
:10068000ED01C0930E021092200210921F0283858A
:10069000682B80EC92E00E940C0390911F02913233
:1006A00008F03FC080911E028111FCCF82E0809350
:1006B0001E0281E080931D028FEF8093EC01109267
:1006C000EB019093EA01AEEEB1E0EAECF1E080E0FC
:1006D00098132FC01092C9018091C901CC0FC82B6B
:1006E000C093C90180911C02813039F510921C021F
:1006F0008091C9018093BB008091BC0083FDF8CF3D
:1007000085EC8093BC0080911E028230E1F38091E1
:10071000EC018F3F31F08091EC01803211F080913B
:10072000EC011092200210921F021092ED01CF9165
:1007300008952D9121938F5FCBCF85EEE2CF90E08E
:1007400080E008950F931F93CF938C01C62F0E94D2
:100750003B036C2F6460C8010E943B036C2F6B7FCE
:10076000C8010E943B0383EC90E00197F1F7CF9121
:100770001F910F9108950F931F93CF93DF938C01D7
:10078000D62FC42F607F642B0E94A20380E1D89FE4
:10079000B00111246C2BC801DF91CF911F910F91F3
:1007A0000C94A203CF93DF93CDB7DEB728970FB693
:1007B000F894DEBF0FBECDBF98E0E0E0F1E0DE01CF
:1007C000119601900D929A95E1F79091D4029817A5
:1007D00008F48FEF90E0880F991F21E030E02C0F94
:1007E0003D1F820F931FFC016081606840E08CEC2C
:1007F00092E028960FB6F894DEBF0FBECDBFDF9112
:10080000CF910C94BB0341E00E94BB0381E090E0D8
:100810000895FB0101900020E9F73197AF01461BD5
:10082000570BDC01ED91FC910280F381E02D0994DE
:100830008F929F92AF92BF92EF92FF920F931F936E
:10084000CF93DF93CDB7DEB7A1970FB6F894DEBF95
:100850000FBECDBF7C01FA01CB0119A2223008F4F2
:100860002AE08E010F5D1F4F822E912CB12CA12CFE
:10087000BF01A50194010E94B509F901CA016A30BE
:100880000CF5605DD8016E938D01232B242B252B55
:1008900079F790E080E0109721F0BD01C7010E9438
:1008A0000904A1960FB6F894DEBF0FBECDBFDF914D
:1008B000CF911F910F91FF90EF90BF90AF909F90BD
:1008C0008F900895695CDECF2F923F924F925F9296
:1008D0006F927F928F929F92AF92BF92CF92DF9250
:1008E000EF92FF921F93CF93DF93EC016A017B019C
:1008F000722EAB019601CB01B6010E941D0C68E37C
:1009000071E0811126C046015701E894B7F82FEF36
:100910003FEF4FE75FE7C501B4010E941D0C811155
:100920000CC02FEF3FEF4FE75FE7C501B4010E9416
:10093000530A6CE371E0181664F02FEF3FEF4FE7B6
:100940005FE4C701B6010E94AB0B1816B4F460E473
:1009500071E0CE01DF91CF911F91FF90EF90DF907A
:10096000CF90BF90AF909F908F907F906F905F904F
:100970004F903F902F900C9409042FEF3FEF4FE7DB
:100980005FECC701B6010E94530A87FDE0CF20E06B
:1009900030E0A901C701B6010E94530A312C212C75
:1009A00087FF09C06DE2CE010E9489001C01F7FAA1
:1009B000F094F7F8F09410E060E070E080E09FE3DE
:1009C000711641F020E030E040E251E40E94580A04
:1009D0001F5FF6CFA70196010E94E7092B013C019A
:1009E0000E94CA0A4B015C012AE0BC01A401CE01AD
:1009F0000E9418047C01E20CF31C1123C1F1C50113
:100A0000B4010E94F90A9B01AC01C301B2010E942A
:100A1000E6094B015C016EE2CE010E948900E80EFE
:100A2000F91E115020F120E030E040E251E4C50110
:100A3000B4010E94B00B2B013C010E94CA0A4B0179
:100A4000B12CA12C2AE0B501A401CE010E9418040A
:100A5000E80EF91EC501B4010E94F90A9B01AC0120
:100A6000C301B2010E94E6094B015C01DACFC70164
:100A7000DF91CF911F91FF90EF90DF90CF90BF90CB
:100A8000AF909F908F907F906F905F904F903F902E
:100A90002F9008951F920F920FB60F9211242F934B
:100AA0003F934F935F936F937F938F939F93AF93F6
:100AB000BF93EF93FF9383E292E00E940E01FF91B8
:100AC000EF91BF91AF919F918F917F916F915F91C6
:100AD0004F913F912F910F900FBE0F901F9018953F
:100AE0001F920F920FB60F9211242F938F939F9303
:100AF000EF93FF93E0913302F09134028081E09113
:100B00003902F0913A0282FD1BC0908180913C0233
:100B10008F5F8F7320913D02821741F0E0913C027C
:100B2000F0E0ED5DFD4F958F80933C02FF91EF91DA
:100B30009F918F912F910F900FBE0F901F9018953E
:100B40008081F4CF1F920F920FB60F9211242F9332
:100B50003F938F939F93AF93BF9380911002909197
:100B60001102A0911202B091130230910F0223E002
:100B7000230F2D3758F50196A11DB11D20930F02AB
:100B80008093100290931102A0931202B09313026B
:100B90008091140290911502A0911602B091170253
:100BA0000196A11DB11D8093140290931502A0938C
:100BB0001602B0931702BF91AF919F918F913F9111
:100BC0002F910F900FBE0F901F90189526E8230FBE
:100BD0000296A11DB11DD2CF1F920F920FB60F9298
:100BE00011242F933F934F935F936F937F938F9332
:100BF0009F93AF93BF93EF93FF938091B900887F4A
:100C0000803609F44AC0F0F5883209F4A7C018F517
:100C1000803109F49BC0B8F4882309F4F9C0883006
:100C200009F494C0FF91EF91BF91AF919F918F9183
:100C30007F916F915F914F913F912F910F900FBED8
:100C40000F901F901895883109F488C0803251F7B1
:100C50008093EC0114C0803409F49DC040F48033CB
:100C6000B9F38833F9F68093EC0185ECB0C0803598
:100C700009F485C0883509F496C0883499F60E9435
:100C80008402D0CF883909F48CC038F5883729F030
:100C900050F4883611F0803729F683E080931E02E5
:100CA0001092C80157C0883809F47BC0803919F008
:100CB000803809F0B7CF8091C801803208F071C048
:100CC000E091C80181E08E0F8093C8018091BB0044
:100CD000F0E0E855FE4F80833DC0803B39F0E0F402
:100CE000803A09F479C0883A09F09CCF84E0809377
:100CF0001E021092A7011092A601E0911A02F09133
:100D00001B0209958091A60181110FC081E080939B
:100D1000A6011092860109C0803C09F4A6CF883C48
:100D200009F4A3CF883B09F07DCFE091A70181E0D2
:100D30008E0F8093A701F0E0EA57FE4F80818093E9
:100D4000BB009091A7018091A60129C08091C901A3
:100D50008093BB0085EC8093BC0064CF9091EB0145
:100D60008091EA01981758F5E091EB0181E08E0F30
:100D70008093EB01F0E0E653FE4F8081E9CFE091F4
:100D8000EB0181E08E0F8093EB018091BB00F0E0DE
:100D9000E653FE4F80839091EB018091EA01981712
:100DA000C8F285E8D8CFE091EB0181E08E0F809307
:100DB000EB018091BB00F0E0E653FE4F8083809111
:100DC0001D0281115CCF81E080931C0284EA809334
:100DD000BC0010921E0226CF85EC8093BC001092BE
:100DE0001E028091C801803230F4E091C801F0E029
:100DF000E855FE4F10826091C80170E0E091180242
:100E0000F091190288EA91E009951092C8010ACF81
:100E10001092EC0134CFE3E2F2E01382128288EE0A
:100E200093E0A0E0B0E084839583A683B7832CE0B1
:100E300031E03183208325EC30E03587248724ECB2
:100E400030E03787268720EC30E0318B208B21EC97
:100E500030E0338B228B22EC30E0358B248B26EC78
:100E600030E0378B268B118E128E138E148EE0ECB1
:100E7000F2E01382128284839583A683B7838EE186
:100E800091E091838083ECECF2E01382128280E3A4
:100E900091E09183808387E2848384E1818784E089
:100EA000828713860895789484B5826084BD84B562
:100EB000816084BD85B5826085BD85B5816085BD55
:100EC00080916E00816080936E001092810080910D
:100ED0008100826080938100809181008160809395
:100EE0008100809180008160809380008091B100BA
:100EF00084608093B1008091B00081608093B000E5
:100F000080917A00846080937A0080917A00826078
:100F100080937A0080917A00816080937A0080913A
:100F20007A00806880937A001092C10061E08FE0BF
:100F30000E94E90161E081E10E94E90161E083E151
:100F40000E94E90161E082E00E94E90161E084E041
:100F50000E94E90161E086E00E94E90161E082E22D
:100F60000E94E90161E083E20E94E90160E084E21D
:100F70000E94E90160E085E20E94E90161E087E00A
:100F80000E94E90110922202109221021092200286
:100F900010921F0210921E0281E080931D02109297
:100FA0001C0261E082E10E949D0161E083E10E94F8
:100FB0009D018091B9008E7F8093B9008091B90026
:100FC0008D7F8093B90088E48093B80085E4809396
:100FD000BC0087E890E090931B0280931A0288E897
:100FE00090E090931902809318021092D1028091A0
:100FF000D602823018F098E09093D1028093D40208
:1010000062E370E080E090E00E9451026091D702BC
:101010008CEC92E00E943B0368EE73E080E090E08D
:101020000E94510260E38CEC92E00E94A203CBE4A8
:10103000D6E4CE010197F1F760E38CEC92E00E94D8
:10104000A2032197F1F760E38CEC92E00E94A203E7
:1010500083E592E00197F1F760E28CEC92E00E9468
:10106000A2036091D102606240E08CEC92E00E94A9
:10107000BB0384E08093D20240E06CE08CEC92E011
:101080000E94BB0340E061E08CEC92E00E94BB0355
:10109000CBE3DFE1CE010197F1F712E01093D30229
:1010A00040E066E08CEC92E00E94BB0340E062E02E
:1010B0008CEC92E00E94BB032197F1F788E08093CB
:1010C000D70260E08CEC92E00E943B03E091330297
:1010D000F09134021083E0912F02F09130021082DF
:1010E000E0913102F09132028FEC808310923B024A
:1010F000E0913702F091380286E08083E09135027A
:10110000F0913602808180618083E0913502F09118
:101110003602808188608083E0913502F09136024A
:10112000808180688083E0913502F0913602808171
:101130008F7D808388248A9483E0982EA12CB12C03
:1011400090E0292E90E0392E80E10E941A02EC01F5
:1011500082E10E941A028C012FEF30E0DE010E9432
:10116000220CA50194010E94960969017A01E90106
:10117000B801110F880B990B0E94FB0A20E030E0A8
:1011800040E85AE30E94B00B2AE034EF49E05CE308
:101190000E94E70924EA39EA4EE15BE30E94580A1B
:1011A0002B013C0161E082E20E949D0160E083E24C
:1011B0000E949D0161E087E00E94E901209709F00B
:1011C0006EC060E087E00E949D0180E00E94D20333
:1011D00064E471E08CEC92E00E9409042AE0B7011B
:1011E000A601F7FE0DC06DE28CEC92E00E94890032
:1011F00044275527BA014C195D096E097F092AE079
:101200008CEC92E00E94180481E00E94D20322E05C
:10121000B301A2018CEC92E00E9464046BE471E0E3
:1012200083E292E00E94090422E0B301A20183E27A
:1012300092E00E94640460E671E083E292E00E9422
:10124000090464E471E083E292E00E9409042AE068
:10125000B701A601F7FE0DC06DE283E292E00E94A5
:10126000890044275527BA014C195D096E097F0989
:101270002AE083E292E00E94180462E671E083E2D1
:1012800092E00E9409042114310409F45DCF0E9408
:10129000FA00882309F458CF0E94000055CFCF3FB1
:1012A000D10511F461E08ECFEBEAF0E08491833058
:1012B00019F140F48130B1F08230C9F0C038D10565
:1012C0008CF77FCF873011F1883041F18430B1F74E
:1012D00080918000806280938000D0928B00C092C9
:1012E0008A0073CF84B5806884BDC7BC6ECF84B5D7
:1012F000806284BDC8BC69CF809180008068809383
:101300008000D0928900C09288005FCF8091B000A9
:1013100080688093B000C092B30057CF8091B00036
:1013200080628093B000C092B4004FCF052E97FB2F
:101330001EF400940E94AD0957FD07D00E94B50924
:1013400007FC03D04EF40C94AD09509540953095B0
:1013500021953F4F4F4F5F4F089590958095709521
:1013600061957F4F8F4F9F4F0895A1E21A2EAA1BC0
:10137000BB1BFD010DC0AA1FBB1FEE1FFF1FA21745
:10138000B307E407F50720F0A21BB30BE40BF50B42
:10139000661F771F881F991F1A9469F760957095CB
:1013A000809590959B01AC01BD01CF010895A29F4E
:1013B000B001B39FC001A39F700D811D1124911D29
:1013C000B29F700D811D1124911D08955058BB27A7
:1013D000AA270E94FE090C94710B0E94630B38F03F
:1013E0000E946A0B20F039F49F3F19F426F40C9404
:1013F000600B0EF4E095E7FB0C945A0BE92F0E946A
:10140000820B58F3BA17620773078407950720F019
:1014100079F4A6F50C94A40B0EF4E0950B2EBA2FDC
:10142000A02D0B01B90190010C01CA01A0011124EA
:10143000FF27591B99F0593F50F4503E68F11A1696
:10144000F040A22F232F342F4427585FF3CF469527
:1014500037952795A795F0405395C9F77EF41F1649
:10146000BA0B620B730B840BBAF09150A1F0FF0F13
:10147000BB1F661F771F881FC2F70EC0BA0F621FFF
:10148000731F841F48F4879577956795B795F795EF
:101490009E3F08F0B0CF9395880F08F09927EE0F84
:1014A0009795879508950E94360B08F481E008957A
:1014B0000E946C0A0C94710B0E946A0B58F00E94F7
:1014C000630B40F029F45F3F29F00C945A0B511143
:1014D0000C94A50B0C94600B0E94820B68F399236B
:1014E000B1F3552391F3951B550BBB27AA27621720
:1014F0007307840738F09F5F5F4F220F331F441F2D
:10150000AA1FA9F335D00E2E3AF0E0E832D0915060
:101510005040E695001CCAF72BD0FE2F29D0660F4D
:10152000771F881FBB1F261737074807AB07B0E890
:1015300009F0BB0B802DBF01FF2793585F4F3AF096
:101540009E3F510578F00C945A0B0C94A50B5F3F0D
:10155000E4F3983ED4F3869577956795B795F7951C
:101560009F5FC9F7880F911D9695879597F9089504
:10157000E1E0660F771F881FBB1F621773078407A0
:10158000BA0720F0621B730B840BBA0BEE1F88F7AF
:10159000E09508950E948A0B88F09F5798F0B92F24
:1015A0009927B751B0F0E1F0660F771F881F991F98
:1015B0001AF0BA95C9F714C0B13091F00E94A40B8B
:1015C000B1E008950C94A40B672F782F8827B85F9B
:1015D00039F0B93FCCF3869577956795B395D9F7F0
:1015E0003EF490958095709561957F4F8F4F9F4FFA
:1015F0000895E89409C097FB3EF490958095709506
:1016000061957F4F8F4F9F4F9923A9F0F92F96E94E
:10161000BB279395F695879577956795B795F111C3
:10162000F8CFFAF4BB0F11F460FF1BC06F5F7F4F60
:101630008F4F9F4F16C0882311F096E911C0772372
:1016400021F09EE8872F762F05C0662371F096E87B
:10165000862F70E060E02AF09A95660F771F881F4A
:10166000DAF7880F9695879597F90895990F0008EE
:10167000550FAA0BE0E8FEEF16161706E807F90764
:10168000C0F012161306E407F50798F0621B730BFF
:10169000840B950B39F40A2661F0232B242B252B80
:1016A00021F408950A2609F4A140A6958FEF811D23
:1016B000811D089597F99F6780E870E060E00895C4
:1016C0009FEF80EC089500240A941616170618065A
:1016D0000906089500240A94121613061406050636
:1016E0000895092E0394000C11F4882352F0BB0FC7
:1016F00040F4BF2B11F460FF04C06F5F7F4F8F4F2A
:101700009F4F089557FD9058440F551F59F05F3F64
:1017100071F04795880F97FB991F61F09F3F79F013
:1017200087950895121613061406551FF2CF469595
:10173000F1DF08C0161617061806991FF1CF869517
:101740007105610508940895E894BB2766277727FB
:10175000CB0197F908950E94360B08F48FEF089596
:101760000E94C30B0C94710B0E94630B38F00E9413
:101770006A0B20F0952311F00C945A0B0C94600B1B
:1017800011240C94A50B0E94820B70F3959FC1F35A
:10179000950F50E0551F629FF001729FBB27F00D1F
:1017A000B11D639FAA27F00DB11DAA1F649F662774
:1017B000B00DA11D661F829F2227B00DA11D621FC3
:1017C000739FB00DA11D621F839FA00D611D221F7D
:1017D000749F3327A00D611D231F849F600D211D61
:1017E000822F762F6A2F11249F5750409AF0F1F0E4
:1017F00088234AF0EE0FFF1FBB1F661F771F881F4D
:1018000091505040A9F79E3F510580F00C945A0B1F
:101810000C94A50B5F3FE4F3983ED4F3869577953F
:101820006795B795F795E7959F5FC1F7FE2B880FF2
:10183000911D9695879597F908950E94360B880B10
:10184000990B08950E94D709B7FF0895821B930B47
:101850000895EE0FFF1F0590F491E02D0994F89480
:02186000FFCFB8
:10186200000040001400540000000000300190000D
:10187200BD007D01EE00CC00E000000000000C0382
:10188200DF029F03B502D802C502B60200000000C3
:10189200030490009F0383026E616E00696E66000E
:1018A2006F76660050574D203D200050726573736D
:1018B2007572655F5265636569766572203D2000C9
:0618C20009000D0A000000
:00000001FF
