:10000000F6C0000024C1000022C1000020C1000091
:100010001EC100001CC100001AC1000018C1000070
:1000200016C1000014C1000012C1000010C1000080
:100030000EC100000CC100000AC1000008C1000090
:1000400006C1000004C1000002C1000000C10000A0
:10005000FEC00000FCC00000FAC0000017C700008E
:10006000F6C00000DDC60000B2C60000F0C000000F
:10007000EEC00000ECC00000EAC00000E8C00000D4
:10008000E6C00000E4C00000E2C00000E0C00000E4
:10009000DEC00000DCC00000DAC0000041C7000084
:1000A000D6C00000D4C00000D2C00000D0C0000004
:1000B000CEC00000CCC00000CAC00000C8C0000014
:1000C000C6C00000C4C00000C2C00000C0C0000024
:1000D000BEC00000BCC00000BAC00000B8C0000034
:1000E000B6C0000000002100240027002A002D00D7
:1000F0003000330001010000040107010A01000083
:100100002200250028002B002E00310034000201BF
:100110000000050108010B01050505050705080894
:100120000808020202020A0A080804040404010181
:100130000101010101010303030303030303040796
:1001400007070C0C0C0C0C0C0C0C0202020206062D
:100150000606060606060B0B0B0B0B0B0B0B010220
:1001600010202008081020401020408002010201C9
:100170000804020101020408102040808040201081
:1001800008040201800402018040201008040201DA
:100190000804020101020408102040800102040842
:1001A0001020408000000A0B02090C0D0E08070306
:1001B000040100000000000000000000000000003A
:1001C000000000000000000000000000000000002F
:1001D00012111000000000000000000000000000EC
:1001E00000000000000000000000B3085A0E1124B7
:1001F0001FBECFEFD1E2DEBFCDBF00E00CBF12E0EB
:10020000A0E0B2E0E2E8F6E200E00BBF02C0079037
:100210000D92AA3DB107D9F724E0AAEDB2E001C0E2
:100220001D92A635B207E1F710E0C6EFD0E000E07E
:1002300006C021970109802FFE010E940E11C53FC3
:10024000D10780E00807A9F7DAD70C943013D8CE8D
:1002500008950895DC01ED91FC910190F081E02D6D
:100260001994AF92BF92CF92DF92EF92FF920F93C9
:100270001F93CF93DF936C017B018B01040F151F3C
:10028000EB015E01AE18BF08C017D10759F06991A4
:10029000D601ED91FC910190F081E02DC6011995F8
:1002A000892B79F7C501DF91CF911F910F91FF90B5
:1002B000EF90DF90CF90BF90AF900895FC01538DE9
:1002C000448D252F30E0842F90E0821B930B541730
:1002D00010F0CF96089501970895FC01918D828DBD
:1002E000981761F0A28DAE0FBF2FB11D5D968C9156
:1002F000928D9F5F9F73928F90E008958FEF9FEF95
:100300000895FC01918D828D981731F0828DE80F50
:10031000F11D858D90E008958FEF9FEF0895FC010A
:10032000918D228D892F90E0805C9F4F821B9109D7
:100330008F739927089587E993E0F1DF21E0892BF6
:1003400009F420E0822F0895FC01A48DA80FB92F95
:10035000B11DA35ABF4F2C91848D90E001968F73ED
:100360009927848FA689B7892C93A089B1898C910C
:10037000837080648C93938D848D981306C002885B
:10038000F389E02D80818F7D80830895EF92FF9225
:100390000F931F93CF93DF93EC0181E0888F9B8DA8
:1003A0008C8D98131AC0E889F989808185FF15C062
:1003B0009FB7F894EE89FF896083E889F989808185
:1003C0008370806480839FBF81E090E0DF91CF9154
:1003D0001F910F91FF90EF900895F62E0B8D10E076
:1003E0000F5F1F4F0F731127E02E8C8D8E110BC0E6
:1003F0000FB607FCFACFE889F989808185FFF5CF30
:10040000CE01A2DFF2CFEB8DEC0FFD2FF11DE35AF1
:10041000FF4FF0829FB7F8940B8FEA89FB898081A8
:100420008062D0CFCF93DF93EC01888D8823B1F029
:10043000AA89BB89E889F9898C9185FD03C08081EF
:1004400086FD0CC00FB607FCF7CF8C9185FFF2CF6D
:10045000808185FFEDCFCE0177DFEACFDF91CF91AD
:10046000089580E090E0892B21F065DF81110E94E2
:10047000000080E090E0892B49F080E090E0892B3B
:1004800029F00E94000081110E94000080E090E0AD
:10049000892B49F080E090E0892B29F00E94000030
:1004A00081110E94000080E090E0892B49F080E0FB
:1004B00090E0892B29F00E94000081110C9400002B
:1004C0000895282F30E0F901EC55FE4F9491F90181
:1004D000E25AFE4F4491285E3E4FF90124912223B7
:1004E00009F435C0992311F191509231F8F4E92FB4
:1004F000F0E08827E158FD4F8F4F0C940E11B002A9
:10050000B4029102A802AC029602B702BD02C10277
:10051000C702CB02CF02D502D9029602DD02E30266
:10052000E702809180008F7780938000E22FF0E0D7
:10053000EE0FFF1FE250FF4FA591B4918FB7F894D3
:10054000EC91611148C040954E234C938FBF0895A4
:10055000809180008F7DE8CF80918000877FE4CFFD
:1005600084B58F7784BDE2CF84B58F7DFBCF80913A
:10057000B0008F778093B000D9CF8091B0008F7D8D
:10058000F9CF809190008F7780939000CFCF8091AA
:1005900090008F7DF9CF80919000877FF5CF80917B
:1005A000A0008F778093A000C1CF8091A0008F7DA5
:1005B000F9CF8091A000877FF5CF809120018F77C0
:1005C00080932001B3CF809120018F7DF9CF80915E
:1005D0002001877FF5CF4E2BB8CFCF93DF9390E0EC
:1005E000FC01E25AFE4F2491885E9E4FFC018491EB
:1005F0008823D1F090E0880F991FFC01EC51FF4F48
:10060000A591B491FC01E250FF4FC591D4916111C5
:100610000EC09FB7F8948C91E22FE0958E238C93B7
:100620002881E223E8839FBFDF91CF9108958FB7A0
:10063000F894EC91E22BEC938FBFF6CF8653209188
:100640007B00982F987F277F922B90937B00877059
:10065000806480937C0080917A00806480937A002B
:1006600080917A0086FDFCCF80917800909179008E
:1006700008953FB7F8948091880390918903A091E1
:100680008A03B0918B0326B5A89B05C02F3F19F0B4
:100690000196A11DB11D3FBFBA2FA92F982F882702
:1006A000BC01CD01620F711D811D911D42E0660FDD
:1006B000771F881F991F4A95D1F708958F929F92AF
:1006C000AF92BF92CF92DF92EF92FF926B017C01CB
:1006D000D0DF4B015C01C114D104E104F104B1F09D
:1006E000C8DF681979098A099B09683E734081054A
:1006F000910588F321E0C21AD108E108F10888EEDB
:10070000880E83E0981EA11CB11CE5CFFF90EF90EE
:10071000DF90CF90BF90AF909F908F9008950895F5
:1007200085ED8093BC008091BC0084FDFCCF1092CD
:100730009203089520911A03260F3327331F213285
:100740003105ECF420919203FC0190E080E024302C
:1007500069F082E00895A0911A032191AC014650FE
:100760005D4FA40FB52FB11D2C930196861798F3FA
:1007700080911A03680F60931A0380E0089581E066
:1007800008950895E091960380919503E81730F459
:10079000F0E0E652FD4F808190E008958FEF9FEFEB
:1007A000089590919603809195032FEF3FEF98174E
:1007B00048F4E92FF0E0E652FD4F208130E09F5FE2
:1007C00090939603C90108958091950390919603A3
:1007D000891B990B0895CF92DF92EF92FF920F93AE
:1007E0001F93CF93DF937C01CB018A01209161039A
:1007F000222389F0EB016B01C40ED51ECC15DD055B
:1008000061F06991D701ED91FC910190F081E02DAB
:10081000C7011995F3CF642F8DDFC801DF91CF9108
:100820001F910F91FF90EF90DF90CF900895CF939D
:10083000DF931F92CDB7DEB7698320916103222336
:10084000F9F020919303203258F021E030E0FC01D0
:100850003383228390E080E00F90DF91CF91089561
:1008600080919403E82FF0E0EE59FC4F998190833A
:100870008F5F809394038093930381E090E0ECCFAB
:1008800061E0CE01019656DFF8CFCF93FC01C48121
:1008900021E020936103C09382031092940310928D
:1008A00093038385682B84E394E0C1DF90919303E5
:1008B000913208F03FC0809192038111FCCF82E019
:1008C0008093920381E0809391038FEF8093600384
:1008D00010925F0390935E03A2E6B3E0EEE3F3E0D1
:1008E00080E098132FC010923D0380913D03CC0F00
:1008F000C82BC0933D0380919003813039F510924D
:10090000900380913D038093BB008091BC0083FDE8
:10091000F8CF85EC8093BC00809192038230E1F3A4
:10092000809160038F3F31F080916003803211F03D
:1009300080916003109294031092930310926103CC
:10094000CF9108952D9121938F5FCBCF85EEE2CF8C
:1009500090E080E008950F931F93CF938C01C62FF2
:1009600094DF6C2F6460C80190DF6C2F6B7FC8012F
:100970008CDF83EC90E00197F1F7CF911F910F91FD
:1009800008950F931F93CF93DF938C01D62FC42F1D
:10099000607F642BE0DF80E1D89FB00111246C2BD5
:1009A000C801DF91CF911F910F91D5CFCF93DF93E6
:1009B00000D000D01F921F92CDB7DEB798E0E6E0DE
:1009C000F2E0DE01119601900D929A95E1F7909177
:1009D0004E04981710F48FEF890F90E0880F991F3D
:1009E00021E030E02C0F3D1F820F931FFC0160813E
:1009F000606840E086E494E028960FB6F894DEBF85
:100A00000FBECDBFDF91CF91BCCF41E0BADF81E017
:100A100090E0089560E082E254DD60E083E251DD21
:100A200061E08AE0DADD60E08AE04BCDE0914004ED
:100A3000F0914104DC016D917C913097D9F0611502
:100A40007105A9F48091440490914504892BA9F083
:100A5000808190E00895FC0184819581892B69F063
:100A6000DB018C9190E09195819591090895CF01DA
:100A70000C9420136115710571F790E080E00895E2
:100A8000FB0101900020E9F73197AF01461B570B9E
:100A9000DC01ED91FC910280F381E02D19948F929D
:100AA0009F92AF92BF92EF92FF920F931F93CF93BB
:100AB000DF93CDB7DEB7A1970FB6F894DEBF0FBEB8
:100AC000CDBF7C01FA01CB0119A2223008F42AE043
:100AD0008E010F5D1F4F822E912CB12CA12CBF01D6
:100AE000A50194010E94D70FF901CA016A3004F5EB
:100AF000605DD8016E938D01232B242B252B79F774
:100B000090E080E0109719F0BD01C701B9DFA19610
:100B10000FB6F894DEBF0FBECDBFDF91CF911F910E
:100B20000F91FF90EF90BF90AF909F908F9008959E
:100B3000695CDFCF2F923F924F925F926F927F92CC
:100B40008F929F92AF92BF92CF92DF92EF92FF92DD
:100B50001F93CF93DF93EC016A017B01722EAB01EF
:100B60009601CB01B6010E940A116EE372E0811179
:100B700026C046015701E894B7F82FEF3FEF4FE743
:100B80005FE7C501B4010E940A1181110CC02FEF6B
:100B90003FEF4FE75FE7C501B4010E94980E62E4A2
:100BA00072E0181664F02FEF3FEF4FE75FE4C701E4
:100BB000B6010E9406111816ACF466E472E0CE018C
:100BC000DF91CF911F91FF90EF90DF90CF90BF907A
:100BD000AF909F908F907F906F905F904F903F90DD
:100BE0002F904ECF2FEF3FEF4FE75FECC701B601DD
:100BF0000E94980E87FDE1CF20E030E0A901C701F7
:100C0000B6010E94980E312C212C87FF08C06DE29E
:100C1000CE0120DB1C01F7FAF094F7F8F09410E015
:100C200060E070E080E09FE3711641F020E030E08A
:100C300040E251E40E946D101F5FF6CFA7019601BC
:100C40000E9409102B013C010E94DA104B015C014B
:100C50002AE0BC01A401CE0122DF7C01E20CF31CDE
:100C60001123B1F1C501B4010E949C0E9B01AC019E
:100C7000C301B2010E9408104B015C016EE2CE017B
:100C8000E9DAE80EF91E115018F120E030E040E2F8
:100C900051E4C501B4010E94FD0E2B013C010E94EC
:100CA000DA104B01B12CA12C2AE0B501A401CE0130
:100CB000F6DEE80EF91EC501B4010E949C0E9B01F0
:100CC000AC01C301B2010E9408104B015C01DBCFF3
:100CD000C701DF91CF911F91FF90EF90DF90CF90F0
:100CE000BF90AF909F908F907F906F905F904F904C
:100CF0003F902F900895C4CEFC0180819181009790
:100D000011F00C94B21108950F931F93CF93DF93BA
:100D1000EC0188819981009759F02A813B8126173F
:100D2000370730F081E0DF91CF911F910F91089547
:100D30008B016F5F7F4F0E943B12009759F09983A0
:100D400088831B830A832C813D81232B59F7FC0167
:100D50001082E8CF80E0E7CFEF92FF920F931F93CE
:100D6000CF93DF93EC017B01198218821B821A82D8
:100D70001D821C82FB0101900020E9F731978F0151
:100D8000061B170BB801C0DF28813981811113C000
:100D90002115310519F0C9010E94B211198218827A
:100DA0001D821C821B821A82DF91CF911F910F91AD
:100DB000FF90EF9008951D830C83B701C901DF9167
:100DC000CF911F910F91FF90EF900C9429131F92D8
:100DD0000F920FB60F9211240BB60F922F933F93E1
:100DE0004F935F936F937F938F939F93AF93BF9333
:100DF000EF93FF9387E993E0A7DAFF91EF91BF911B
:100E0000AF919F918F917F916F915F914F913F91A2
:100E10002F910F900BBE0F900FBE0F901F90189543
:100E20001F920F920FB60F9211240BB60F922F93B1
:100E30008F939F93EF93FF93E091A703F091A80303
:100E40008081E091AD03F091AE0382FD1DC09081E1
:100E50008091B0038F5F8F732091B103821741F0AF
:100E6000E091B003F0E0E956FC4F958F8093B0031A
:100E7000FF91EF919F918F912F910F900BBE0F904B
:100E80000FBE0F901F9018958081F2CF1F920F9286
:100E90000FB60F9211242F933F938F939F93AF938D
:100EA000BF938091840390918503A0918603B091B4
:100EB00087033091830323E0230F2D3758F50196E4
:100EC000A11DB11D20938303809384039093850318
:100ED000A0938603B0938703809188039091890340
:100EE000A0918A03B0918B030196A11DB11D80933F
:100EF000880390938903A0938A03B0938B03BF91D7
:100F0000AF919F918F913F912F910F900FBE0F90B6
:100F10001F90189526E8230F0296A11DB11DD2CF70
:100F20001F920F920FB60F9211240BB60F922F93B0
:100F30003F934F935F936F937F938F939F93AF9361
:100F4000BF93EF93FF938091B900887F803609F4B7
:100F50004CC008F03FC0883209F4A8C028F58031A1
:100F600009F49CC0C8F4882309F4FAC0883009F455
:100F700095C0FF91EF91BF91AF919F918F917F911C
:100F80006F915F914F913F912F910F900BBE0F90FA
:100F90000FBE0F901F901895883109F487C08032DA
:100FA00041F78093600314C0803409F49CC040F47E
:100FB0008033B9F38833E9F68093600385ECAFC0E2
:100FC000803509F484C0883509F495C0883489F6E1
:100FD000A7DBCFCF883909F48CC038F5883729F0E2
:100FE00050F4883611F0803721F683E08093920325
:100FF00010923C0357C0883809F47BC0803919F03F
:10100000803809F0B6CF80913C03803208F071C07F
:10101000E0913C0381E08E0F80933C038091BB0004
:10102000F0E0E45EFC4F80833DC0803B39F0E0F4AB
:10103000803A09F479C0883A09F09BCF84E0809324
:10104000920310921B0310921A03E0918E03F09109
:101050008F03199580911A0381110FC081E080934D
:101060001A031092FA0209C0803C09F4A7CF883C09
:1010700009F4A4CF883B09F07CCFE0911B0381E009
:101080008E0F80931B03F0E0E650FD4F808180932C
:10109000BB0090911B0380911A0329C080913D03EE
:1010A0008093BB0085EC8093BC0063CF90915F037D
:1010B00080915E03981758F5E0915F0381E08E0FF1
:1010C00080935F03F0E0E25CFC4F8081E9CFE09128
:1010D0005F0381E08E0F80935F038091BB00F0E09F
:1010E000E25CFC4F808390915F0380915E039817D0
:1010F000C8F285E8D8CFE0915F0381E08E0F80933E
:101100005F038091BB00F0E0E25CFC4F8083809144
:10111000910381115DCF81E08093900384EA8093F5
:10112000BC001092920325CF85EC8093BC001092F6
:10113000920380913C03803230F4E0913C03F0E074
:10114000E45EFC4F108260913C0370E0E0918C0300
:10115000F0918D038CE193E0199510923C0309CF37
:101160001092600335CFE7E9F3E01382128288EE34
:1011700093E0A0E0B0E084839583A683B78322E167
:1011800032E03183208325EC30E03587248724EC5E
:1011900030E03787268720EC30E0318B208B21EC44
:1011A00030E0338B228B22EC30E0358B248B26EC25
:1011B00030E0378B268B118E128E138E148EE4E363
:1011C000F4E01382128284839583A683B78384E23A
:1011D00092E091838083E6E4F4E01382128286E356
:1011E00092E09183808387E2848384E1818784E035
:1011F0008287138663EB72E080E494E0ADCDCF93F9
:10120000DF93CDB7DEB768970FB6F894DEBF0FBE99
:10121000CDBF789484B5826084BD84B5816084BD7F
:1012200085B5826085BD85B5816085BD80916E0084
:10123000816080936E0010928100809181008260B5
:1012400080938100809181008160809381008091F2
:1012500080008160809380008091B10084608093E1
:10126000B1008091B00081608093B00080919100C6
:1012700082608093910080919100816080939100C1
:10128000809190008160809390008091A1008260A5
:101290008093A1008091A10081608093A100809142
:1012A000A00081608093A0008091210182608093E2
:1012B0002101809121018160809321018091200191
:1012C00081608093200180917A00846080937A000D
:1012D00080917A00826080937A0080917A008160A8
:1012E00080937A0080917A00806880937A001092CF
:1012F000C10061E08FE071D961E081E16ED961E008
:1013000083E16BD961E082E068D961E084E065D96E
:1013100061E086E062D961E088E05FD961E082E265
:101320005CD961E083E259D961E088E256D961E095
:1013300089E253D960E084E250D960E085E24DD97A
:1013400061E08AE04AD910929603109295031092B8
:101350009403109293031092920381E0809391037F
:101360001092900361E084E1ACD861E085E1A9D8F6
:101370008091B9008E7F8093B9008091B9008D7FF4
:101380008093B90088E48093B80085E48093BC0022
:1013900088E291E090938F0380938E0389E291E03D
:1013A00090938D0380938C0310924B048091500492
:1013B000823018F098E090934B0480934E0462E3DF
:1013C00070E080E090E07AD96091510486E494E086
:1013D0005CDA68EE73E080E090E070D960E386E468
:1013E00094E0B9DA0BE416E4C8010197F1F760E381
:1013F00086E494E0B0DAC8010197F1F760E386E48F
:1014000094E0A9DA83E592E00197F1F760E286E4DF
:1014100094E0A1DA60914B04606240E086E494E0DD
:10142000B0DA84E080934C0440E06CE086E494E021
:10143000A8DA40E061E086E494E0A3DA0BE31FE180
:10144000C8010197F1F782E0F82EF0924D0440E0D8
:1014500066E086E494E095DA40E062E086E494E0B9
:1014600090DAC8010197F1F788E08093510460E0B9
:1014700086E494E00ADA40E061E086E494E081DA10
:10148000C8010197F1F7E091A703F091A803F0825A
:10149000E091A303F091A4031082E091A503F091E1
:1014A000A6038FEC80831092AF03E091AB03F09121
:1014B000AC0386E08083E091A903F091AA038081C8
:1014C00080618083E091A903F091AA038081886004
:1014D0008083E091A903F091AA03808180688083D2
:1014E000E091A903F091AA0380818F7D80839AEF18
:1014F000292E312C88E3A2D88C0187E39FD886E37C
:101500009DD88EE39BD87C018FE398D85C01B7010E
:10151000FF0C880B990B12D420E030E040E85AE32E
:101520006CD42AE034EF49E05CE373D524EA39EA6D
:101530004EE15BE3D2D56B017C01B501BB0C880B9E
:10154000990BFCD320E030E040E85AE356D42AE07F
:1015500034EF49E05CE35DD524EA39EA4EE15BE330
:10156000BCD5698B7A8B8B8B9C8BB801110F880B48
:10157000990BE4D320E030E040E85AE33ED42AE07F
:1015800034EF49E05CE345D524EA39EA4EE15BE318
:10159000A4D54B015C01A70196013AD506D69B0163
:1015A000770F440B550B2C593F4F4F4F5F4FA4E61D
:1015B000B0E0F3D422EC31E040E050E0D2D42D8B07
:1015C0003E8B4F8B588FDA01C9018A569F4FAF4F20
:1015D000BF4F8D879E87AF87B88B20E030E040EA11
:1015E00050E469897A898B899C8913D59B01AC0168
:1015F000C501B4010BD618160CF057C020E030E03E
:1016000048E452E4C501B40104D59B01AC01C70113
:10161000B6018ED387FF19C061E08FE00E9461029E
:1016200061E082E20E94610260E083E20E94610266
:1016300061E08AE00E94ED0261E08AE00E946102BE
:1016400060E177E280E090E039D887E993E00E949A
:101650008F01892B09F472C287E993E00E946D0122
:1016600090ED980F963038F589831A8200914404E2
:10167000109145040F5F1F4FB80180E494E044DBF4
:10168000882319F32091400430914104809144044F
:1016900090914504BE016F5F7F4F820F931FD9D792
:1016A0001093450400934404D0CFB4D960E08FE098
:1016B0000E946102CACF8A3041F66AE472E0CE012C
:1016C00001964ADBCE010196B1D910E097FD10C01A
:1016D0006EE772E0CE0107963FDBCE010796A6D9F2
:1016E00011E0181619060CF410E0CE01079604DB81
:1016F000CE01019601DB112309F4F2C08091400470
:1017000090914104412C512C3201009711F0D5D217
:101710002B0160E08FE00E94610260E082E00E94A5
:10172000610292E04916510409F471C02CF541148C
:10173000510409F4B0C04A94452809F447C070E048
:1017400060E080E494E0E0DA2091400430914104CC
:101750008111EBC12115310511F0C90103D6109299
:1017600041041092400410924504109244041092D7
:1017700043041092420469CFE3E04E16510409F489
:1017800069C0F4E04F165104D1F661E081E10E9496
:10179000610260E084E00E94610260E086E00E94F5
:1017A000610260E088E00E94610261E083E10E94E2
:1017B000610260ED77E080E090E00E945E0360E00F
:1017C00083E10E94610260E081E141C060E081E16B
:1017D0000E94610261E084E00E94610260E086E0B4
:1017E0000E94610260E088E00E94610261E083E1A2
:1017F0000E94610268EE73E080E090E00E945E0368
:1018000060E083E10E94610260E084E020C060E06B
:1018100081E10E94610260E084E00E94610261E077
:1018200086E00E94610260E088E00E94610261E05F
:1018300083E10E94610268EE73E080E090E00E9424
:101840005E0360E083E10E94610260E086E00E9446
:10185000610275CF60E081E10E94610260E084E096
:101860000E94610260E086E00E94610261E088E01F
:101870000E94610261E083E10E94610268EE73E010
:1018800080E090E00E945E0360E083E10E946102DC
:1018900060E088E0DCCF60E081E10E94610261E00D
:1018A00084E00E94610261E086E00E94610261E0E2
:1018B00088E00E94610261E083E10E9461026CEDB8
:1018C00075E080E090E00E945E0360E083E10E94AA
:1018D000610260E084E00E94610260E086E0D6CFB1
:1018E0008091440490914504892B09F411C1009121
:1018F0004004109141046CE472E0C801A1D6892B28
:1019000069F561E088E20E94610260E089E20E947C
:10191000610260E08FE00E94610260E081E10E946C
:10192000610260E083E10E94610261E082E00E9466
:10193000610261E084E00E94610268EE73E080E091
:1019400090E00E945E0360E088E20E94610260E035
:1019500089E20E94610260E082E054CF6EE472E0AE
:10196000C8016ED6892B09F0D3C061E082E20E94E3
:10197000610260E083E20E94610261E08AE00E940D
:10198000ED02EEEAF1E08491EFEFE80FE23108F0CA
:10199000BAC0F0E08827E153F34F8F4F3FC4E10C0A
:1019A000EE0CF40CFE0C080D830D120D1B0D240D16
:1019B0002E0D380D420D510D5B0D830D650D6F0D14
:1019C000790D84B5806884BDFAEFF7BD60ED77E0EE
:1019D00080E090E00E945E031DD8B1CE84B58062A5
:1019E00084BD8AEF88BDF2CF8091800080688093AB
:1019F00080003092890020928800E8CF809180009A
:101A000080628093800030928B0020928A00DECF2B
:101A10008091800088608093800030928D002092B9
:101A20008C00D4CF8091B00080688093B0009AEF92
:101A30009093B300CBCF8091B00080628093B000D0
:101A4000AAEFA093B400C2CF8091900080688093E9
:101A500090003092990020929800B8CF8091900029
:101A600080628093900030929B0020929A00AECFCB
:101A70008091900088608093900030929D00209229
:101A80009C00A4CF8091A00080688093A0008091EA
:101A9000A0008F7B8093A0003092A9002092A80024
:101AA00095CF8091A00080628093A0003092AB001F
:101AB0002092AA008BCF8091A00088608093A00024
:101AC0003092AD002092AC0081CF809120018068DF
:101AD00080932001309229012092280177CF8091B4
:101AE000200180628093200130922B0120922A01F4
:101AF0006DCF8091200188608093200130922D016C
:101B000020922C0163CF61E08AE00E9461025ECFE7
:101B100060E572E087E993E00E94400560E872E0CA
:101B200087E993E00E9440050ACE10924504109286
:101B3000440463EB72E0C9018CD587CD80E00E943C
:101B4000D60462ED72E086E494E0D5D88D859E855A
:101B5000AF85B889B7FFA2C06DE286E494E00E9429
:101B60002A012AE04AE65FEF6FEF7FEF8D899E89B9
:101B7000AF89B88D481B590B6A0B7B0B86E494E048
:101B80000E944F0581E00E94D60463E872E086E47B
:101B900094E0B1D822E0B701A60186E494E00E9467
:101BA0009A056AE872E086E494E0A5D882E00E9493
:101BB000D6046FE872E086E494E09DD822E049897B
:101BC0005A896B897C8986E494E00E949A056AE8C8
:101BD00072E086E494E08FD883E00E94D60466E940
:101BE00072E086E494E087D822E0B501A40186E49F
:101BF00094E00E949A056AE872E086E494E07BD85B
:101C00006DE972E087E993E076D822E0B701A6019A
:101C100087E993E00E949A0562EB72E087E993E01E
:101C20006AD864EB72E087E993E065D822E04989DD
:101C30005A896B897C8987E993E00E949A0562EB57
:101C400072E087E993E057D86EEC72E087E993E0A1
:101C500052D88D859E85AF85B889B7FF25C06DE2C6
:101C600087E993E00E942A014AE65FEF6FEF7FEF7A
:101C70008D899E89AF89B88D481B590B6A0B7B0BE8
:101C80002AE087E993E00E944F0560E872E087E967
:101C900093E00E9440050E9431022CCC2AE04D8541
:101CA0005E856F8578896ACF2AE04D855E856F8570
:101CB0007889E7CF80E494E01FC81F93FC0199273F
:101CC0008827BC01E89411911032E9F3193010F023
:101CD0001E30C8F31B3249F01D3241F4689405C030
:101CE00012D0610F711D811D911D119110531A3079
:101CF000B8F33EF490958095709561957F4F8F4F26
:101D00009F4F1F910895592F482F372F262F660F69
:101D1000771F881F991F660F771F881F991F620FF3
:101D2000731F841F951F660F771F881F991F0895C3
:101D300040D008F481E00895E89409C097FB3EF490
:101D400090958095709561957F4F8F4F9F4F992308
:101D5000A9F0F92F96E9BB279395F6958795779586
:101D60006795B795F111F8CFFAF4BB0F11F460FF46
:101D70001BC06F5F7F4F8F4F9F4F16C0882311F09E
:101D800096E911C0772321F09EE8872F762F05C0B2
:101D9000662371F096E8862F70E060E02AF09A954D
:101DA000660F771F881FDAF7880F9695879597F942
:101DB0000895990F0008550FAA0BE0E8FEEF1616DC
:101DC0001706E807F907C0F012161306E407F5072F
:101DD00098F0621B730B840B950B39F40A2661F0A3
:101DE000232B242B252B21F408950A2609F4A14046
:101DF000A6958FEF811D811D08950BD078C069D005
:101E000028F06ED018F0952309F05AC05FC0112455
:101E1000A2C07ED0A0F3959FD1F3950F50E0551F3F
:101E2000629FF001729FBB27F00DB11D639FAA272F
:101E3000F00DB11DAA1F649F6627B00DA11D661F7E
:101E4000829F2227B00DA11D621F739FB00DA11D9F
:101E5000621F839FA00D611D221F749F3327A00D59
:101E6000611D231F849F600D211D822F762F6A2FF5
:101E700011249F5750408AF0E1F088234AF0EE0F7A
:101E8000FF1FBB1F661F771F881F91505040A9F787
:101E90009E3F510570F014C05EC05F3FECF3983E6A
:101EA000DCF3869577956795B795F795E7959F5FEE
:101EB000C1F7FE2B880F911D9695879597F9089588
:101EC00097F99F6780E870E060E008959FEF80ECED
:101ED000089500240A941616170618060906089590
:101EE00000240A9412161306140605060895092EF6
:101EF0000394000C11F4882352F0BB0F40F4BF2B65
:101F000011F460FF04C06F5F7F4F8F4F9F4F0895A4
:101F100057FD9058440F551F59F05F3F71F047959A
:101F2000880F97FB991F61F09F3F79F0879508957F
:101F3000121613061406551FF2CF4695F1DF08C09E
:101F4000161617061806991FF1CF869571056105BB
:101F500008940895E894BB2766277727CB0197F963
:101F60000895052E97FB16F400940FD057FD05D069
:101F70001ED007FC02D046F408C05095409530951D
:101F800021953F4F4F4F5F4F0895909580957095E5
:101F900061957F4F8F4F9F4F08952BD0A59F900D38
:101FA000B49F900DA49F800D911D11240895A1E26E
:101FB0001A2EAA1BBB1BFD010DC0AA1FBB1FEE1FC3
:101FC000FF1FA217B307E407F50720F0A21BB30B0E
:101FD000E40BF50B661F771F881F991F1A9469F78A
:101FE00060957095809590959B01AC01BD01CF01E6
:101FF0000895A29FB001B39FC001A39F700D811DE2
:102000001124911DB29F700D811D1124911D089501
:102010005058BB27AA270ED06ACF5BDF30F060DFB5
:1020200020F031F49F3F11F41EF450CF0EF4E095F0
:10203000E7FB46CFE92F6CDF80F3BA17620773071F
:102040008407950718F071F49EF584CF0EF4E0959F
:102050000B2EBA2FA02D0B01B90190010C01CA0162
:10206000A0011124FF27591B99F0593F50F4503E0D
:1020700068F11A16F040A22F232F342F4427585FFF
:10208000F3CF469537952795A795F0405395C9F717
:102090007EF41F16BA0B620B730B840BBAF09150CF
:1020A000A1F0FF0FBB1F661F771F881FC2F70EC06E
:1020B000BA0F621F731F841F48F487957795679541
:1020C000B795F7959E3F08F0B3CF9395880F08F02A
:1020D0009927EE0F9795879508950CD008CF00DFCC
:1020E00040F0F7DE30F021F45F3F19F0E9CE5111F6
:1020F00032CFECCE0DDF98F39923C9F35523B1F31A
:10210000951B550BBB27AA2762177307840738F066
:102110009F5F5F4F220F331F441FAA1FA9F333D0C5
:102120000E2E3AF0E0E830D091505040E695001C79
:10213000CAF729D0FE2F27D0660F771F881FBB1F35
:10214000261737074807AB07B0E809F0BB0B802D0F
:10215000BF01FF2793585F4F2AF09E3F510568F05B
:10216000AFCEF9CE5F3FECF3983EDCF386957795E2
:102170006795B795F7959F5FC9F7880F911D96955D
:10218000879597F90895E1E0660F771F881FBB1FB9
:10219000621773078407BA0720F0621B730B840B66
:1021A000BA0BEE1F88F7E095089504D06894B1113A
:1021B000D2CE0895B5DE88F09F5790F0B92F9927B9
:1021C000B751A0F0D1F0660F771F881F991F1AF042
:1021D000BA95C9F712C0B13081F0BCDEB1E0089504
:1021E000B9CE672F782F8827B85F39F0B93FCCF385
:1021F000869577956795B395D9F73EF49095809538
:10220000709561957F4F8F4F9F4F0895D2DD08F4F1
:102210008FEF0895CEDD880B990B0895EE0FFF1F09
:10222000881F8BBF0790F691E02D19940F931F9391
:10223000CF93DF938230910510F482E090E0E0913B
:102240005404F091550430E020E0B0E0A0E0309775
:1022500099F42115310509F44AC0281B390B2430A3
:102260003105D8F58A819B816115710589F1FB01E2
:1022700093838283FE0111C04081518102811381C9
:1022800048175907E0F04817590799F4109761F07B
:1022900012960C93129713961C933296CF01DF91EE
:1022A000CF911F910F9108950093540410935504FA
:1022B000F4CF2115310551F04217530738F0A90129
:1022C000DB019A01BD01DF01F801C1CFEF01F9CFB8
:1022D0009093550480935404CDCFFE01E20FF31F79
:1022E000819391932250310939832883D7CF20914C
:1022F000520430915304232B41F420910202309177
:102300000302309353042093520420910002309131
:1023100001022115310541F42DB73EB74091040269
:1023200050910502241B350BE0915204F0915304A7
:10233000E217F307A0F42E1B3F0B2817390778F09C
:10234000AC014E5F5F4F2417350748F04E0F5F1FFB
:102350005093530440935204819391939FCFF0E0A4
:10236000E0E09CCFCF93DF930097E9F0FC01329738
:1023700013821282A0915404B0915504ED0130E013
:1023800020E01097A1F420813181820F931F2091CA
:102390005204309153042817390709F061C0F093B3
:1023A0005304E0935204DF91CF910895EA01CE17D0
:1023B000DF07E8F54A815B819E0141155105B1F7C0
:1023C000E901FB83EA8349915991C40FD51FEC17AA
:1023D000FD0761F4808191810296840F951FE901C8
:1023E00099838883828193819B838A83F0E0E0E0F4
:1023F00012968D919C9113970097B9F52D913C9170
:102400001197CD010296820F931F209152043091B3
:1024100053042817390739F6309751F510925504AF
:1024200010925404B0935304A0935204BCCFD383AE
:10243000C28340815181840F951FC817D90761F469
:102440004E5F5F4F88819981480F591F51834083A8
:102450008A819B81938382832115310509F0B0CF56
:10246000F0935504E09354049ECFFD01DC01C0CFEE
:1024700013821282D7CF4F925F926F927F928F9288
:102480009F92AF92BF92CF92DF92EF92FF920F9303
:102490001F93CF93DF938C01009791F4CB01DF91D1
:1024A000CF911F910F91FF90EF90DF90CF90BF9051
:1024B000AF909F908F907F906F905F904F90B6CE2F
:1024C000FC01E60FF71F9C0122503109E217F307C8
:1024D00008F4AAC0D901CD91DC911197C617D7078E
:1024E00018F1C530D10570F0CE0104978617970713
:1024F00048F0C61BD70B2297C193D1936D937C9361
:10250000CF0130DFC801DF91CF911F910F91FF9074
:10251000EF90DF90CF90BF90AF909F908F907F9083
:102520006F905F904F9008955B01AC1ABD0A4C010B
:102530008C0E9D1EA0915404B0915504512C412C39
:10254000F12CE12C109731F58091520490915304B5
:102550008815990509F05CC04616570608F058C062
:102560008091000290910102009741F48DB79EB7CF
:102570004091040250910502841B950BE817F9075E
:1025800008F052C0F0935304E0935204F9017183B0
:102590006083B8CF8D919C91119712966C90129791
:1025A00013967C901397A815B90559F56C0142E074
:1025B000C40ED11CCA14DB0420F1AC014A195B091A
:1025C000DA011296159780F06282738251834083FC
:1025D000D9016D937C93E114F10471F0D701139646
:1025E000FC93EE9312978ECF22968C0F9D1FF901CC
:1025F00091838083F301EFCFF0935504E09354046B
:1026000081CF4816590608F42C017D01D3019ACFD9
:10261000CB010CDE7C01009739F0AE01B80107D088
:10262000C801A0DE87016ECF10E000E06BCFFB0198
:10263000DC0102C001900D9241505040D8F708953E
:10264000FB01DC018D91019080190110D9F3990BE8
:102650000895FB01DC0101900D920020E1F708953F
:1026600010E0C6EFD0E000E005C0802FFE01D6DD0F
:102670002196011DC73FD10780E00807B1F7F89404
:02268000FFCF8A
:1026820000005604800000004000140054000000C6
:102692000000C60131015E0112028F016D0181014C
:1026A200000000001704EB03A804C103E403D103F4
:1026B200C2030000000005053101A8048F036E610A
:1026C2006E00696E66006F76660030003500360077
:1026D20057726F6E6720636F6D6D616E642C207030
:1026E2006C656173652063686F6F7365206E756DCD
:1026F2006265722066726F6D203020746F20340024
:102702000D0A00505F52203D2000206B50610050A6
:102712005F31203D200050535F313D2000507265F3
:1027220073737572655F5265636569766572203D84
:102732002000090050726573737572655F46697295
:1027420073744163747561746F72203D20002020A0
:0A275200202050574D203D200000CC
:00000001FF
